:100000000C942A000C9447000C9447000C94470071
:100010000C9447000C9447000C9447000C94470044
:100020000C9447000C9447000C9447000C94470034
:100030000C9447000C9447000C9447000C94470024
:100040000C9447000C9447000C9447000C94470014
:100050000C94470011241FBECFE5D4E0DEBFCDBF16
:1000600011E0A0E6B0E0E0E0F9E002C005900D92FA
:10007000AC32B107D9F711E0ACE2B1E001C01D929A
:10008000A433B107E1F70E9419020C947E040C948A
:10009000000016B8329A87B187B93E9A379A089508
:1000A00097B18770982B97B9369A349BFECF349AC4
:1000B00024B135B1932F80E030E0282B392B822FEB
:1000C000932F08952F923F924F925F926F927F925B
:1000D0008F929F92AF92BF92CF92DF92EF92FF9258
:1000E0000F931F93DF93CF9300D000D00F92CDB723
:1000F000DEB720E030E04AE754E40E94F4030E94B7
:100100000D03882777FD8095982F0E94400320E0FB
:1001100030E04AE754E40E94A502962E772E682E1E
:10012000592EF62EE72ED82EC92E00E610E01D829D
:100130001C82F80161917191819191918F012F2D14
:100140003E2D4D2D5C2D0E94F00388236CF0F801AC
:1001500060817181828193812F2D3E2D4D2D5C2DEB
:100160000E94A1028823A4F02C813D812F5F3F4F84
:100170003D832C8322333105E1F6BB24AA240F2EC4
:10018000F6EC8F2EF02D0F2EF2E43F2EF02D70C0E6
:100190008C819D81EFEF8F3F9E0709F45FC09C012A
:1001A000B901882777FD8095982F0E944003262E5D
:1001B00079838A839B83B62EA72E882E392E0F2E05
:1001C000F0E6CF2EF0E0DF2EF02DEC81FD81EE0F7A
:1001D000FF1FEE0FFF1FEC0DFD1DE080F18002817F
:1001E0001381692D772D862D952DA80197010E94E9
:1001F0003C022B013C018C819D810196880F991F47
:10020000880F991F8C0D9D1DFC0160817181828179
:100210009381A80197010E943C029B01AC01C3019C
:10022000B2010E94A502D62EE72EF82E092F2DEC42
:100230003CEC4CEC5DE30E94F0031816CCF4622D0C
:100240007A2D882D932D2D2D3E2D4F2D502F0E9430
:100250003D02B62EA72E882E392E0AC0BB24AA2412
:100260000F2EF6EC8F2EF02D0F2EF2E43F2EF02DF8
:100270006B2D7A2D882D932D0F900F900F900F904E
:100280000F90CF91DF911F910F91FF90EF90DF9032
:10029000CF90BF90AF909F908F907F906F905F9026
:1002A0004F903F902F900895009741F0E9EFF0E0D4
:1002B0003197F1F700C000000197C1F70895CF937F
:1002C000DF9320E030E040E251E40E94F4030E941A
:1002D0000D03CB0168EE73E00E945704FC0164E655
:1002E00070E00E94570470933101609330012AE05E
:1002F00030E0B9010E94570470932F0160932E01E2
:10030000CCE2D1E0CF01B9010E94570499838883E0
:1003100081E090E09F838E83DF91CF9108958A30B2
:1003200091050CF049C084309105A1F1853091050B
:100330008CF48130910509F442C0823091051CF49F
:100340000097E1F01EC082309105F1F083309105F5
:10035000C1F41DC08730910531F1883091053CF41E
:1003600085309105D1F08630910559F419C0883057
:100370009105E1F08930910521F41BC02EEE30E0AB
:1003800020C020E030E01DC026EB30E01AC02CEB8E
:1003900030E017C028E730E014C02CED30E011C089
:1003A0002EED30E00EC028EE30E00BC02EEF30E036
:1003B00008C02CEF30E005C020E030E002C028E2A9
:1003C00030E0822F932F08958CE082BB80912C0126
:1003D00090912D010E948F01809585BBA89A8FE096
:1003E00090E00E94540184E182BB80912E019091A3
:1003F0002F010E948F01809585BB809132019091E1
:1004000033018130910509F4A8988FE090E00E94B3
:10041000540188E182BB80913001909131010E94AA
:100420008F01809585BBA89A8FE090E00E945401CF
:1004300008950E9449008FEF84BB9EED91BB12BAD4
:1004400085BB80E00E945000BC0180E090E00E94EB
:100450003E0320E030E040EA50E40E94F40320E054
:1004600030E040E85AE30E94F4030E9462000E94D8
:100470005F010E94E401E5CF5058BB27AA270ED0A8
:1004800075C166D130F06BD120F031F49F3F11F48B
:100490001EF45BC10EF4E095E7FB51C1E92F77D163
:1004A00080F3BA17620773078407950718F071F491
:1004B0009EF58FC10EF4E0950B2EBA2FA02D0B01E7
:1004C000B90190010C01CA01A0011124FF27591B99
:1004D00099F0593F50F4503E68F11A16F040A22F9F
:1004E000232F342F4427585FF3CF46953795279510
:1004F000A795F0405395C9F77EF41F16BA0B620B0F
:10050000730B840BBAF09150A1F0FF0FBB1F661F55
:10051000771F881FC2F70EC0BA0F621F731F841F98
:1005200048F4879577956795B795F7959E3F08F0BE
:10053000B3CF9395880F08F09927EE0F979587957D
:100540000895D9D008F481E008950CD00FC107D1E7
:1005500040F0FED030F021F45F3F19F0F0C05111AF
:1005600039C1F3C014D198F39923C9F35523B1F3DA
:10057000951B550BBB27AA2762177307840738F012
:100580009F5F5F4F220F331F441FAA1FA9F333D071
:100590000E2E3AF0E0E830D091505040E695001C25
:1005A000CAF729D0FE2F27D0660F771F881FBB1FE1
:1005B000261737074807AB07B0E809F0BB0B802DBB
:1005C000BF01FF2793585F4F2AF09E3F510568F007
:1005D000B6C000C15F3FECF3983EDCF3869577959B
:1005E0006795B795F7959F5FC9F7880F911D969509
:1005F000879597F90895E1E0660F771F881FBB1F65
:10060000621773078407BA0720F0621B730B840B11
:10061000BA0BEE1F88F7E095089504D06894B111E5
:10062000D9C00895BCD088F09F5790F0B92F992772
:10063000B751A0F0D1F0660F771F881F991F1AF0ED
:10064000BA95C9F712C0B13081F0C3D0B1E00895B6
:10065000C0C0672F782F8827B85F39F0B93FCCF337
:10066000869577956795B395D9F73EF490958095E3
:10067000709561957F4F8F4F9F4F0895E89409C003
:1006800097FB3EF490958095709561957F4F8F4FC5
:100690009F4F9923A9F0F92F96E9BB279395F695DB
:1006A000879577956795B795F111F8CFFAF4BB0F59
:1006B00011F460FF1BC06F5F7F4F8F4F9F4F16C0BD
:1006C000882311F096E911C0772321F09EE8872F47
:1006D000762F05C0662371F096E8862F70E060E003
:1006E0002AF09A95660F771F881FDAF7880F96957C
:1006F000879597F90895990F0008550FAA0BE0E820
:10070000FEEF16161706E807F907C0F012161306D3
:10071000E407F50798F0621B730B840B950B39F413
:100720000A2661F0232B242B252B21F408950A2679
:1007300009F4A140A6958FEF811D811D089597F9B9
:100740009F6780E870E060E008959FEF80EC089577
:1007500000240A94161617061806090608950024A0
:100760000A9412161306140605060895092E03941A
:10077000000C11F4882352F0BB0F40F4BF2B11F48E
:1007800060FF04C06F5F7F4F8F4F9F4F089557FDED
:100790009058440F551F59F05F3F71F04795880FEF
:1007A00097FB991F61F09F3F79F087950895121686
:1007B00013061406551FF2CF4695F1DF08C0161632
:1007C00017061806991FF1CF8695710561050894E3
:1007D0000895E894BB2766277727CB0197F90895FA
:1007E0008ADF08F48FEF08950BD0C0CFB1DF28F077
:1007F000B6DF18F0952309F0A2CFA7CF1124EACFD6
:10080000C6DFA0F3959FD1F3950F50E0551F629F6F
:10081000F001729FBB27F00DB11D639FAA27F00D59
:10082000B11DAA1F649F6627B00DA11D661F829F80
:100830002227B00DA11D621F739FB00DA11D621F65
:10084000839FA00D611D221F749F3327A00D611D82
:10085000231F849F600D211D822F762F6A2F112464
:100860009F5750408AF0E1F088234AF0EE0FFF1FB7
:10087000BB1F661F771F881F91505040A9F79E3FEE
:10088000510570F05CCFA6CF5F3FECF3983EDCF3F0
:10089000869577956795B795F795E7959F5FC1F72B
:1008A000FE2B880F911D9695879597F9089597FBD4
:1008B000092E07260AD077FD04D00CD006D00020E0
:1008C0001AF4709561957F4F0895F6F7909581958C
:1008D0009F4F0895AA1BBB1B51E107C0AA1FBB1F56
:1008E000A617B70710F0A61BB70B881F991F5A95BC
:1008F000A9F780959095BC01CD010895F894FFCF9C
:10090000105895402DB2954089419440E3A59340FD
:100910000C0293405C8F924085EB9140E926914018
:10092000128390406DE78F40A01A8F4004568E408E
:1009300037898D409CC48C409A99894000008C4036
:10094000A2458A40DF4F89404E628840BC74874090
:100950002B87864068918540E17A8440508D8340A2
:10096000C9768240105881408941804019047E40F8
:100970000AD77B40FCA97940022B774008AC744031
:100980000E2D724014AE6F401B2F6D40BE9F6A400B
:10099000C5206840CBA16540D1226340EC51604046
:1009A000F2D25D400C025B40128358402DB255409C
:1009B000333353404E62504068914D406F124B406C
:0C09C00089414840A4704540AAF1424023
:00000001FF
