:100000000C942A000C943C000C943C000C943C0092
:100010000C943C000C943C000C943C000C943C0070
:100020000C943C000C943C000C943C000C943C0060
:100030000C943C000C943C000C943C000C943C0050
:100040000C943C000C943C000C943C000C943C0040
:100050000C943C0011241FBECFE5D4E0DEBFCDBF21
:1000600010E0A0E6B0E001C01D92A836B107E1F7AC
:100070000E949E000C9441010C940000009741F0F6
:10008000E9EFF0E03197F1F700C000000197C1F708
:1000900008958A3091050CF049C084309105A1F192
:1000A000853091058CF48130910509F442C082308D
:1000B00091051CF40097E1F01EC082309105F1F02B
:1000C00083309105C1F41DC08730910531F188302E
:1000D00091053CF485309105D1F08630910559F4B5
:1000E00019C088309105E1F08930910521F41BC0D9
:1000F0002EEE30E020C020E030E01DC026EB30E0E6
:100100001AC02CEB30E017C028E730E014C02CED0B
:1001100030E011C02EED30E00EC028EE30E00BC014
:100120002EEF30E008C02CEF30E005C020E030E0DA
:1001300002C028E230E0822F932F08956F927F92C1
:100140008F929F92AF92BF92CF92DF92EF92FF92E7
:100150000F931F93CF93DF938FEF84BB9FED91BBE2
:1001600012BA15BA85BB81E090E09093610080934C
:10017000600026E030E0309363002093620024E0CA
:1001800030E0309365002093640090936700809383
:10019000660000E010E00F2EF3E0EF2EFF24F02DBC
:1001A0000F2EF0E6CF2EF0E0DF2EF02D0F2EF4E133
:1001B0009F2EF02D0F2EF6E6AF2EF0E0BF2EF02D85
:1001C00066246A940F2EF8E18F2EF02D0F2EFCE09E
:1001D0007F2EF02D85B385BBC801B7010E941A019F
:1001E000EC01FC01EE0FFF1FEC0DFD1D80819181E4
:1001F0000E944900809585BB0F5F1F4FC130D1051C
:1002000039F0C230D10581F0209779F472BA0DC06F
:1002100092BAF501808191818130910511F4A898FD
:1002200004C085B365BA01C082BA8EE190E00E9435
:100230003E00D0CF97FB092E07260AD077FD04D0C9
:100240000CD006D000201AF4709561957F4F089568
:10025000F6F7909581959F4F0895AA1BBB1B51E11E
:1002600007C0AA1FBB1FA617B70710F0A61BB70B26
:10027000881F991F5A95A9F780959095BC01CD01CB
:060280000895F894FFCF81
:00000001FF
